{
  "contractName": "Reputation",
  "abi": [
    {
      "inputs": [],
      "stateMutability": "nonpayable",
      "type": "constructor"
    },
    {
      "anonymous": false,
      "inputs": [
        {
          "indexed": true,
          "internalType": "address",
          "name": "user",
          "type": "address"
        },
        {
          "indexed": false,
          "internalType": "uint256",
          "name": "score",
          "type": "uint256"
        },
        {
          "indexed": false,
          "internalType": "string",
          "name": "comment",
          "type": "string"
        },
        {
          "indexed": true,
          "internalType": "address",
          "name": "reviewer",
          "type": "address"
        }
      ],
      "name": "FeedbackAdded",
      "type": "event"
    },
    {
      "anonymous": false,
      "inputs": [
        {
          "indexed": true,
          "internalType": "address",
          "name": "user",
          "type": "address"
        },
        {
          "indexed": false,
          "internalType": "uint256",
          "name": "newScore",
          "type": "uint256"
        },
        {
          "indexed": true,
          "internalType": "address",
          "name": "updater",
          "type": "address"
        }
      ],
      "name": "ReputationUpdated",
      "type": "event"
    },
    {
      "inputs": [],
      "name": "admin",
      "outputs": [
        {
          "internalType": "address",
          "name": "",
          "type": "address"
        }
      ],
      "stateMutability": "view",
      "type": "function",
      "constant": true
    },
    {
      "inputs": [
        {
          "internalType": "address",
          "name": "",
          "type": "address"
        },
        {
          "internalType": "uint256",
          "name": "",
          "type": "uint256"
        }
      ],
      "name": "feedbacks",
      "outputs": [
        {
          "internalType": "uint256",
          "name": "score",
          "type": "uint256"
        },
        {
          "internalType": "string",
          "name": "comment",
          "type": "string"
        },
        {
          "internalType": "address",
          "name": "reviewer",
          "type": "address"
        }
      ],
      "stateMutability": "view",
      "type": "function",
      "constant": true
    },
    {
      "inputs": [
        {
          "internalType": "address",
          "name": "",
          "type": "address"
        }
      ],
      "name": "reputationScores",
      "outputs": [
        {
          "internalType": "uint256",
          "name": "",
          "type": "uint256"
        }
      ],
      "stateMutability": "view",
      "type": "function",
      "constant": true
    },
    {
      "inputs": [
        {
          "internalType": "address",
          "name": "user",
          "type": "address"
        },
        {
          "internalType": "uint256",
          "name": "score",
          "type": "uint256"
        }
      ],
      "name": "setReputation",
      "outputs": [],
      "stateMutability": "nonpayable",
      "type": "function"
    },
    {
      "inputs": [
        {
          "internalType": "address",
          "name": "user",
          "type": "address"
        },
        {
          "internalType": "uint256",
          "name": "score",
          "type": "uint256"
        },
        {
          "internalType": "string",
          "name": "comment",
          "type": "string"
        }
      ],
      "name": "addFeedback",
      "outputs": [],
      "stateMutability": "nonpayable",
      "type": "function"
    },
    {
      "inputs": [
        {
          "internalType": "address",
          "name": "user",
          "type": "address"
        }
      ],
      "name": "getReputation",
      "outputs": [
        {
          "internalType": "uint256",
          "name": "",
          "type": "uint256"
        }
      ],
      "stateMutability": "view",
      "type": "function",
      "constant": true
    },
    {
      "inputs": [
        {
          "internalType": "address",
          "name": "user",
          "type": "address"
        }
      ],
      "name": "getFeedbacks",
      "outputs": [
        {
          "components": [
            {
              "internalType": "uint256",
              "name": "score",
              "type": "uint256"
            },
            {
              "internalType": "string",
              "name": "comment",
              "type": "string"
            },
            {
              "internalType": "address",
              "name": "reviewer",
              "type": "address"
            }
          ],
          "internalType": "struct Reputation.Feedback[]",
          "name": "",
          "type": "tuple[]"
        }
      ],
      "stateMutability": "view",
      "type": "function",
      "constant": true
    },
    {
      "inputs": [
        {
          "internalType": "address",
          "name": "newAdmin",
          "type": "address"
        }
      ],
      "name": "changeAdmin",
      "outputs": [],
      "stateMutability": "nonpayable",
      "type": "function"
    },
    {
      "inputs": [
        {
          "internalType": "address",
          "name": "user",
          "type": "address"
        },
        {
          "internalType": "string",
          "name": "reason",
          "type": "string"
        }
      ],
      "name": "resolveDispute",
      "outputs": [],
      "stateMutability": "nonpayable",
      "type": "function"
    }
  ],
  "bytecode": "0x608060405234801561000f575f80fd5b50335f806101000a81548173ffffffffffffffffffffffffffffffffffffffff021916908373ffffffffffffffffffffffffffffffffffffffff16021790555061131a8061005c5f395ff3fe608060405234801561000f575f80fd5b5060043610610091575f3560e01c80638f283970116100645780638f2839701461012f5780639c89a0e21461014b578063b120c16a1461017b578063f851a44014610197578063fe0438b2146101b557610091565b80636db9b63e1461009557806388f42eb7146100c55780638a12ffe8146100e15780638c6529c1146100fd575b5f80fd5b6100af60048036038101906100aa91906109c5565b6101e5565b6040516100bc9190610ba9565b60405180910390f35b6100df60048036038101906100da9190610d1f565b61036c565b005b6100fb60048036038101906100f69190610d8b565b61051b565b005b61011760048036038101906101129190610de5565b6105ac565b60405161012693929190610e89565b60405180910390f35b610149600480360381019061014491906109c5565b610691565b005b610165600480360381019061016091906109c5565b610760565b6040516101729190610ec5565b60405180910390f35b61019560048036038101906101909190610de5565b6107a6565b005b61019f610922565b6040516101ac9190610ede565b60405180910390f35b6101cf60048036038101906101ca91906109c5565b610945565b6040516101dc9190610ec5565b60405180910390f35b606060025f8373ffffffffffffffffffffffffffffffffffffffff1673ffffffffffffffffffffffffffffffffffffffff1681526020019081526020015f20805480602002602001604051908101604052809291908181526020015f905b82821015610361578382905f5260205f2090600302016040518060600160405290815f820154815260200160018201805461027d90610f24565b80601f01602080910402602001604051908101604052809291908181526020018280546102a990610f24565b80156102f45780601f106102cb576101008083540402835291602001916102f4565b820191905f5260205f20905b8154815290600101906020018083116102d757829003601f168201915b50505050508152602001600282015f9054906101000a900473ffffffffffffffffffffffffffffffffffffffff1673ffffffffffffffffffffffffffffffffffffffff1673ffffffffffffffffffffffffffffffffffffffff168152505081526020019060010190610243565b505050509050919050565b60648211156103b0576040517f08c379a00000000000000000000000000000000000000000000000000000000081526004016103a790610f9e565b60405180910390fd5b5f60405180606001604052808481526020018381526020013373ffffffffffffffffffffffffffffffffffffffff16815250905060025f8573ffffffffffffffffffffffffffffffffffffffff1673ffffffffffffffffffffffffffffffffffffffff1681526020019081526020015f2081908060018154018082558091505060019003905f5260205f2090600302015f909190919091505f820151815f015560208201518160010190816104659190611159565b506040820151816002015f6101000a81548173ffffffffffffffffffffffffffffffffffffffff021916908373ffffffffffffffffffffffffffffffffffffffff16021790555050503373ffffffffffffffffffffffffffffffffffffffff168473ffffffffffffffffffffffffffffffffffffffff167f3ad065b7ad2bd316aa4bf0efc36e6ddfd8278eb32195e71d0c93f740e521d42b858560405161050d929190611228565b60405180910390a350505050565b5f8054906101000a900473ffffffffffffffffffffffffffffffffffffffff1673ffffffffffffffffffffffffffffffffffffffff163373ffffffffffffffffffffffffffffffffffffffff16146105a8576040517f08c379a000000000000000000000000000000000000000000000000000000000815260040161059f906112c6565b60405180910390fd5b5050565b6002602052815f5260405f2081815481106105c5575f80fd5b905f5260205f2090600302015f9150915050805f0154908060010180546105eb90610f24565b80601f016020809104026020016040519081016040528092919081815260200182805461061790610f24565b80156106625780601f1061063957610100808354040283529160200191610662565b820191905f5260205f20905b81548152906001019060200180831161064557829003601f168201915b505050505090806002015f9054906101000a900473ffffffffffffffffffffffffffffffffffffffff16905083565b5f8054906101000a900473ffffffffffffffffffffffffffffffffffffffff1673ffffffffffffffffffffffffffffffffffffffff163373ffffffffffffffffffffffffffffffffffffffff161461071e576040517f08c379a0000000000000000000000000000000000000000000000000000000008152600401610715906112c6565b60405180910390fd5b805f806101000a81548173ffffffffffffffffffffffffffffffffffffffff021916908373ffffffffffffffffffffffffffffffffffffffff16021790555050565b5f60015f8373ffffffffffffffffffffffffffffffffffffffff1673ffffffffffffffffffffffffffffffffffffffff1681526020019081526020015f20549050919050565b5f8054906101000a900473ffffffffffffffffffffffffffffffffffffffff1673ffffffffffffffffffffffffffffffffffffffff163373ffffffffffffffffffffffffffffffffffffffff1614610833576040517f08c379a000000000000000000000000000000000000000000000000000000000815260040161082a906112c6565b60405180910390fd5b6064811115610877576040517f08c379a000000000000000000000000000000000000000000000000000000000815260040161086e90610f9e565b60405180910390fd5b8060015f8473ffffffffffffffffffffffffffffffffffffffff1673ffffffffffffffffffffffffffffffffffffffff1681526020019081526020015f20819055503373ffffffffffffffffffffffffffffffffffffffff168273ffffffffffffffffffffffffffffffffffffffff167fa2b5936e23a977bccfd8c359042accece1e54c92e07c4825a1556683073ce564836040516109169190610ec5565b60405180910390a35050565b5f8054906101000a900473ffffffffffffffffffffffffffffffffffffffff1681565b6001602052805f5260405f205f915090505481565b5f604051905090565b5f80fd5b5f80fd5b5f73ffffffffffffffffffffffffffffffffffffffff82169050919050565b5f6109948261096b565b9050919050565b6109a48161098a565b81146109ae575f80fd5b50565b5f813590506109bf8161099b565b92915050565b5f602082840312156109da576109d9610963565b5b5f6109e7848285016109b1565b91505092915050565b5f81519050919050565b5f82825260208201905092915050565b5f819050602082019050919050565b5f819050919050565b610a2b81610a19565b82525050565b5f81519050919050565b5f82825260208201905092915050565b5f5b83811015610a68578082015181840152602081019050610a4d565b5f8484015250505050565b5f601f19601f8301169050919050565b5f610a8d82610a31565b610a978185610a3b565b9350610aa7818560208601610a4b565b610ab081610a73565b840191505092915050565b610ac48161098a565b82525050565b5f606083015f830151610adf5f860182610a22565b5060208301518482036020860152610af78282610a83565b9150506040830151610b0c6040860182610abb565b508091505092915050565b5f610b228383610aca565b905092915050565b5f602082019050919050565b5f610b40826109f0565b610b4a81856109fa565b935083602082028501610b5c85610a0a565b805f5b85811015610b975784840389528151610b788582610b17565b9450610b8383610b2a565b925060208a01995050600181019050610b5f565b50829750879550505050505092915050565b5f6020820190508181035f830152610bc18184610b36565b905092915050565b610bd281610a19565b8114610bdc575f80fd5b50565b5f81359050610bed81610bc9565b92915050565b5f80fd5b5f80fd5b7f4e487b71000000000000000000000000000000000000000000000000000000005f52604160045260245ffd5b610c3182610a73565b810181811067ffffffffffffffff82111715610c5057610c4f610bfb565b5b80604052505050565b5f610c6261095a565b9050610c6e8282610c28565b919050565b5f67ffffffffffffffff821115610c8d57610c8c610bfb565b5b610c9682610a73565b9050602081019050919050565b828183375f83830152505050565b5f610cc3610cbe84610c73565b610c59565b905082815260208101848484011115610cdf57610cde610bf7565b5b610cea848285610ca3565b509392505050565b5f82601f830112610d0657610d05610bf3565b5b8135610d16848260208601610cb1565b91505092915050565b5f805f60608486031215610d3657610d35610963565b5b5f610d43868287016109b1565b9350506020610d5486828701610bdf565b925050604084013567ffffffffffffffff811115610d7557610d74610967565b5b610d8186828701610cf2565b9150509250925092565b5f8060408385031215610da157610da0610963565b5b5f610dae858286016109b1565b925050602083013567ffffffffffffffff811115610dcf57610dce610967565b5b610ddb85828601610cf2565b9150509250929050565b5f8060408385031215610dfb57610dfa610963565b5b5f610e08858286016109b1565b9250506020610e1985828601610bdf565b9150509250929050565b610e2c81610a19565b82525050565b5f82825260208201905092915050565b5f610e4c82610a31565b610e568185610e32565b9350610e66818560208601610a4b565b610e6f81610a73565b840191505092915050565b610e838161098a565b82525050565b5f606082019050610e9c5f830186610e23565b8181036020830152610eae8185610e42565b9050610ebd6040830184610e7a565b949350505050565b5f602082019050610ed85f830184610e23565b92915050565b5f602082019050610ef15f830184610e7a565b92915050565b7f4e487b71000000000000000000000000000000000000000000000000000000005f52602260045260245ffd5b5f6002820490506001821680610f3b57607f821691505b602082108103610f4e57610f4d610ef7565b5b50919050565b7f53636f7265206d757374206265206265747765656e203020616e6420313030005f82015250565b5f610f88601f83610e32565b9150610f9382610f54565b602082019050919050565b5f6020820190508181035f830152610fb581610f7c565b9050919050565b5f819050815f5260205f209050919050565b5f6020601f8301049050919050565b5f82821b905092915050565b5f600883026110187fffffffffffffffffffffffffffffffffffffffffffffffffffffffffffffffff82610fdd565b6110228683610fdd565b95508019841693508086168417925050509392505050565b5f819050919050565b5f61105d61105861105384610a19565b61103a565b610a19565b9050919050565b5f819050919050565b61107683611043565b61108a61108282611064565b848454610fe9565b825550505050565b5f90565b61109e611092565b6110a981848461106d565b505050565b5b818110156110cc576110c15f82611096565b6001810190506110af565b5050565b601f821115611111576110e281610fbc565b6110eb84610fce565b810160208510156110fa578190505b61110e61110685610fce565b8301826110ae565b50505b505050565b5f82821c905092915050565b5f6111315f1984600802611116565b1980831691505092915050565b5f6111498383611122565b9150826002028217905092915050565b61116282610a31565b67ffffffffffffffff81111561117b5761117a610bfb565b5b6111858254610f24565b6111908282856110d0565b5f60209050601f8311600181146111c1575f84156111af578287015190505b6111b9858261113e565b865550611220565b601f1984166111cf86610fbc565b5f5b828110156111f6578489015182556001820191506020850194506020810190506111d1565b86831015611213578489015161120f601f891682611122565b8355505b6001600288020188555050505b505050505050565b5f60408201905061123b5f830185610e23565b818103602083015261124d8184610e42565b90509392505050565b7f4f6e6c792061646d696e2063616e20706572666f726d207468697320616374695f8201527f6f6e000000000000000000000000000000000000000000000000000000000000602082015250565b5f6112b0602283610e32565b91506112bb82611256565b604082019050919050565b5f6020820190508181035f8301526112dd816112a4565b905091905056fea2646970667358221220faf59a243622777166d84f7fd5c3a148dd54f788d2dcdf653a0ca84f8f4b52b464736f6c63430008150033",
  "immutableReferences": {},
  "source": "// SPDX-License-Identifier: MIT\r\npragma solidity ^0.8.0;\r\n\r\ncontract Reputation {\r\n    // Define an admin role for access control\r\n    address public admin;\r\n\r\n    // Mapping for user reputations\r\n    mapping(address => uint256) public reputationScores;\r\n\r\n    // Struct for feedback\r\n    struct Feedback {\r\n        uint256 score;\r\n        string comment;\r\n        address reviewer;\r\n    }\r\n\r\n    // Mapping to hold feedbacks for each user\r\n    mapping(address => Feedback[]) public feedbacks;\r\n\r\n    // Event logs for changes in reputation\r\n    event ReputationUpdated(address indexed user, uint256 newScore, address indexed updater);\r\n    event FeedbackAdded(address indexed user, uint256 score, string comment, address indexed reviewer);\r\n\r\n    constructor() {\r\n        // Set the deployer as the admin\r\n        admin = msg.sender;\r\n    }\r\n\r\n    // Modifier to restrict actions to only admin\r\n    modifier onlyAdmin() {\r\n        require(msg.sender == admin, \"Only admin can perform this action\");\r\n        _;\r\n    }\r\n\r\n    // Function to set reputation score\r\n    function setReputation(address user, uint256 score) public onlyAdmin {\r\n        require(score <= 100, \"Score must be between 0 and 100\");\r\n        reputationScores[user] = score;\r\n        emit ReputationUpdated(user, score, msg.sender);\r\n    }\r\n\r\n    // Function to add feedback\r\n    function addFeedback(address user, uint256 score, string memory comment) public {\r\n        require(score <= 100, \"Score must be between 0 and 100\");\r\n        Feedback memory newFeedback = Feedback(score, comment, msg.sender);\r\n        feedbacks[user].push(newFeedback);\r\n        emit FeedbackAdded(user, score, comment, msg.sender);\r\n    }\r\n\r\n    // Function to get reputation score\r\n    function getReputation(address user) public view returns (uint256) {\r\n        return reputationScores[user];\r\n    }\r\n\r\n    // Function to get all feedback for a user\r\n    function getFeedbacks(address user) public view returns (Feedback[] memory) {\r\n        return feedbacks[user];\r\n    }\r\n\r\n    // Admin can update the contract admin\r\n    function changeAdmin(address newAdmin) public onlyAdmin {\r\n        admin = newAdmin;\r\n    }\r\n\r\n    // Function to handle disputes (placeholder for simplicity)\r\n    function resolveDispute(address user, string memory reason) public onlyAdmin {\r\n        // Dispute resolution logic here\r\n    }\r\n}\r\n",
  "sourcePath": "C:\\Users\\xavie\\golem\\contracts\\Reputation.sol",
  "compiler": {
    "name": "solc",
    "version": "0.8.21+commit.d9974bed.Emscripten.clang"
  },
  "schemaVersion": "3.4.16",
  "updatedAt": "2024-02-17T17:15:38.658Z",
  "networkType": "ethereum",
  "devdoc": {
    "kind": "dev",
    "methods": {},
    "version": 1
  },
  "userdoc": {
    "kind": "user",
    "methods": {},
    "version": 1
  }
}